:106FE00025640A00252E32662C252E32660A004DB5
:106FF000505536303530204953204F4B0A09004D4B
:107000005055363035305F5461736B206973206F93
:047010006B0A0900FE
:10693E004400620000000042004C000044004E0083
:0D694E000000004200520000420054000012
:1070AC009000D2E0FAA3E0FB90015A7406F07D70D8
:1070BC007C00E4FFFE1267BA7BFF7A6F79E09000E8
:1070CC00D6E0FFA3E0900003CFF0A3EFF00241DA8B
:106FAC00125DA87BFF7A6F79E490009CE0FCA3E073
:106FBC00FDA3E0FEA3E0FF900003123AF09000A0C6
:106FCC00E0FCA3E0FDA3E0FEA3E0FF900007123A73
:046FDC00F00241DAA4
:105877001263AE90019DE0FCA3E0FDA3E0FEA3E070
:10588700FF1233BBAB07AA0690015A7403F07D5091
:105897007C007F207E001267BA9001A7E0FFA3E09B
:1058A7009001A5CFF0A3EFF0E4FFFE7D347CC39019
:1058B700004EE0F8A3E0F9A3E0FAA3E0FB1230D52D
:1058C7007B337A33796578421232CF125737E4FB4C
:1058D700FA79E078411231C61233BBEF2478FBE442
:1058E7003EFAC002C003E4FFFE7D347CC390004E45
:1058F700E0F8A3E0F9A3E0FAA3E0FB1230D57B338D
:105907007A33796578421232CF12574DE4FBFA7930
:10591700E078411231C61233BBEF2464FFE43E90B6
:1059270000AEF0A3EFF0D003D0027D647C007F7857
:105937007E00124FF29001A574FFF0A374E0F0E42B
:10594700FFFE7D347CC390019DE0F8A3E0F9A3E05E
:10595700FAA3E0FB1230D57B337A337965784212AC
:1059670032CF125737E4FBFA79E078411231C61289
:1059770033BBEF2478FBE43EFAC002C003E4FFFE2A
:105987007D347CC390019DE0F8A3E0F9A3E0FAA37E
:10599700E0FB1230D57B337A33796578421232CF08
:1059A70012574DE4FBFA79E078411231C61233BB46
:1059B700EF2464FFE43E9000AEF0A3EFF0D003D0F5
:1059C700027D647C007F787E00124FF290019DE09B
:1059D700FCA3E0FDA3E0FEA3E0FF90004E023AF037
:104D7C009001A57407F0A374E0F0900053E004F0E8
:104D8C007006900052E004F0900052E0FEA3E0FFA9
:104D9C00EE6003024E53EF24FE602F14604C14603F
:104DAC0068147003024E3524046003024E53E4FF72
:104DBC001272A67E0090006EEEF0FAA3EFF0FB905C
:104DCC00015A7403F0E4FDFC801B7F011272A67E75
:104DDC0000900070EEF0FAA3EFF0FB90015A740310
:104DEC00F07D107C007F30024EB47F021272A67EE2
:104DFC0000900072EEF0FAA3EFF0FB90015A7403EE
:104E0C00F0E4FDFC7FA8024EB47F031272A67E0074
:104E1C00900074EEF0FAA3EFF0FB90015A7403F0DB
:104E2C007D107C007FA8024EB47F041272A6AC07E2
:104E3C00E41233877BE37AA5799B783C1231C690D8
:104E4C000062123AF08064E4900052F0A3F09000FB
:104E5C0062E0FCA3E0FDA3E0FEA3E0FF1233BBABDA
:104E6C0007AA0690015A7401F07D207C007F607EB9
:104E7C00001267BAE4FFFE7DC87C42900062E0F845
:104E8C00A3E0F9A3E0FAA3E0FB1231C61233BB7C1A
:104E9C00007D64123869AA04AB0590015A7402F0C3
:104EAC007D207C007F707E001267BA900055E00474
:104EBC00F07006900054E004F0900055E020E00300
:104ECC00024F60900070E0FEA3E0FFC3EE94004040
:104EDC001BD3EF9450EE940050127B017A00797C36
:104EEC0090018AE4F0A304F0FD024FB2900070E050
:104EFC00FEA3E0FFC394AAEE9400401CD3EF94FFF2
:104F0C00EE940050137B017A00796690018AE4F0EC
:104F1C00A304F07D04024FB290007EE07004A3E085
:104F2C00640170117B017A00797C90018AF0A3F006
:104F3C007D01024FD0900068E07004A3E064016032
:104F4C0003024FF17B017A00796690018AF0A3F09D
:104F5C007D04807090006EE0FEA3E0FFC3EE940031
:104F6C00401BD3EF9450EE940050127B017A0079E1
:104F7C005E90018AE4F0A304F07D03802990006E1A
:104F8C00E0FEA3E0FFC394AAEE9400401DD3EF947F
:104F9C00FFEE940050147B017A00795A90018AE458
:104FAC00F0A304F07D027C008038900060E0700477
:104FBC00A3E0640170117B017A00795E90018AF0A4
:104FCC00A3F07D03FC801B90005CE07004A3E06404
:104FDC000170127B017A00795A90018AF0A3F07D5E
:054FEC0002FC126A3115
:014FF100229D
:106BB6007F0A7E001272097F0A7E001272BA7F6413
:106BC6007E001271077F007EC27D017C00126A9CE6
:106BD600D299E4F5991273581271C47BFF7A6F79D2
:106BE600EF1241DA7F647E0012720930130EC2136F
:106BF600126FAC7BFF7A6F79FF1241DA7F647E00F9
:056C060012720980E696
:0F731800759D1FE4F5BD75BC807F02FE027209F2
:1072A600EF44C8F5BC00000000E5BC30E4FB53BC6D
:0472B600EFAFBD2257
:103B7F000000000000000000000000000000000036
:103B8F0000000008080808080808000018180000BE
:103B9F0000486C241200000000000000000000002C
:103BAF000000002424247F1212127F121212000030
:103BBF000000081C2A2A0A0C1828282A2A1C080880
:103BCF0000000022251515152A58545454220000C0
:103BDF000000000C1212120A76252911916E0000B6
:103BEF0000060604030000000000000000000000B3
:103BFF000040201010080808080808101020400086
:103C0F000002040808101010101010080804020019
:103C1F000000000008086B1C1C6B08080000000067
:103C2F0000000000080808087F08080808000000C6
:103C3F000000000000000000000000000606040362
:103C4F000000000000000000FE0000000000000067
:103C5F000000000000000000000000000606000049
:103C6F0000008040402020101008080404020200C9
:103C7F0000000018244242424242424224180000EF
:103C8F00000000080E08080808080808083E000091
:103C9F000000003C4242422020100804427E0000F7
:103CAF000000003C4242201820404042221C0000ED
:103CBF00000000203028242422227E2020780000BB
:103CCF000000007E0202021A26404042221C000021
:103CDF00000000382402021A264242422418000033
:103CEF000000007E222210100808080808080000B3
:103CFF000000003C4242422418244242423C000051
:103D0F00000000182442424264584040241C000026
:103D1F000000000000001818000000001818000034
:103D2F000000000000000008000000000008080468
:103D3F00000000402010080402040810204000007A
:103D4F000000000000007F0000007F000000000066
:103D5F000000000204081020402010080402000098
:103D6F000000003C4242464020101000181800008E
:103D7F000000001C225A555555552D42221C00009B
:103D8F000000000808181414243C224242E70000E7
:103D9F000000001F2222221E22424242221F000048
:103DAF000000007C4242010101010142221C00007F
:103DBF000000001F2242424242424242221F0000A4
:103DCF000000003F4212121E12120242423F000038
:103DDF000000003F4212121E1212020202070000E0
:103DEF000000003C2222010101712122221C00004F
:103DFF00000000E7424242427E42424242E7000058
:103E0F000000003E0808080808080808083E0000DF
:103E1F000000007C10101010101010101010110F57
:103E2F000000007722120A0E0A12122222770000D7
:103E3F00000000070202020202020202427F00009B
:103E4F0000000077363636362A2A2A2A2A6B0000D7
:103E5F00000000E346464A4A52525262624700004F
:103E6F000000001C2241414141414141221C000000
:103E7F000000003F424242423E020202020700009F
:103E8F000000001C2241414141414D53321C600052
:103E9F000000003F4242423E1212222242C700005F
:103EAF000000007C4242020418204042423E0000C3
:103EBF000000007F4908080808080808081C0000CF
:103ECF00000000E74242424242424242423C00006E
:103EDF00000000E7424222242414141808080000AE
:103EEF000000006B494949495555362222220000EE
:103EFF00000000E7422424181818242442E7000089
:103F0F00000000772222141408080808081C00007B
:103F1F000000007E2120101008040442423F0000E0
:103F2F000078080808080808080808080808780032
:103F3F00000002020404080808101020202040404E
:103F4F00001E1010101010101010101010101E0066
:103F5F0000384400000000000000000000000000D6
:103F6F00000000000000000000000000000000FF43
:103F7F000006080000000000000000000000000024
:103F8F00000000000000003C4278444242FC000068
:103F9F00000000030202021A26424242261A0000C3
:103FAF000000000000000038440202024438000004
:103FBF0000000060404040784442424264D8000014
:103FCF00000000000000003C427E0202423C000064
:103FDF00000000F08808087E08080808083E000066
:103FEF00000000000000007C22221C023C42423CE8
:103FFF00000000030202023A4642424242E700003A
:10400F000000000C0C00000E08080808083E000015
:10401F000000003030000038202020202020221EF9
:10402F000000000302020272120A16122277000029
:10403F000000000E0808080808080808083E0000DD
:10404F00000000000000007F9292929292B7000051
:10405F00000000000000003B4642424242E70000E1
:10406F00000000000000003C42424242423C00007F
:10407F00000000000000001B26424242221E0207E1
:10408F00000000000000007844424242447840E0C3
:10409F0000000000000000774C040404041F00001F
:1040AF00000000000000007C42023C40423E000045
:1040BF00000000000008083E08080808083000004B
:1040CF0000000000000000634242424262DC000038
:1040DF0000000000000000E742242414080800003C
:1040EF0000000000000000EB494955552222000056
:1040FF00000000000000007624181818246E00003D
:10410F0000000000000000E74224241418080807EC
:10411F00000000000000007E22100808447E00000E
:10412F0000C0202020202010202020202020C00090
:10413F001010101010101010101010101010101070
:10414F0000060808080808100808080808080600EC
:10415F000C32C20000000000000000000000000050
:0673610000007F03DFFEC7
:017367002203
:1072BA00AD07AC06ED1DAE0470011C4E60051273DD
:0472CA006180F122CC
:107209007D607C09ED1D70011C144C70F7EF1F7037
:06721900011E144E70EA94
:01721F00224C
:1045F200C4BD0004407FFC04401FF010101FF010E7
:10460200101FF00400FFFE12102208CB2612902A7F
:10461200900400CBBE0000003FF8000800087FE8CD
:10462200000800081F8810881088108810881F88CA
:10463200108800280010CEAA0001002100110011EC
:104642000001007FF80208020802880448044808B2
:10465200081008200840508020D2BB000000000053
:1046620000000000000000000000FFFE000000004B
:10467200000000000000000000000000CFDF00107A
:104682005010482040245C45E0F840105E23E04092
:1046920044FC48403000221C52E08A43060002CE0D
:1046A200A200110815482548455097DE1024201411
:1046B2006FD4A0142794249424A824C824942814E2
:1046C2003022C3A30008200820FFFE082008202073
:1046D20040102087FE490009001100E1002100215D
:1046E2000021FC0000E3BF00102011FC10881050D4
:1046F2001BFE540051FC512491FC112411FC10208A
:1047020011FC102013FE1000E3BD00100013F8127C
:10471200081BF8560853F8504097FE100013F81281
:104722000813F810401248144410C0D2E2000100ED
:104732003FF808200440FFFE00001FF010101FF099
:1047420010101FF002005104511290120FF0B9C262
:10475200000008F83C0BD01290229022902A90324E
:10476200902290E288228822C822A424D4A49248CB
:1047720000D0D000080009FC10002000480008000A
:1047820013FE3020502090201020102010201020E6
:1047920010A01040D5E20000802040104017FC001D
:1047A200100210F12010A0104010A01110120814D5
:1047B20008280047FE0000D6DA000100010002804E
:1047C2000440082010102828C826082008200820A5
:1047D20014501250228841048202C9FA00010011C9
:1047E20000110011003FFC21004100810001003F47
:1047F200F80100010001000100FFFE0000DCBF0023
:1048020008200820FFFE0820082000003FF80000D2
:104812000000FFFE02000400082010103FF81008FC
:10482200CBAD0001404120212023FE02200620EBD7
:10483200FC2220222023FC222022202A2033FE22B6
:10484200000200B2BB0000007FFC0080008001007B
:1048520001000340052009101108210441048100D0
:10486200010001000100D4F800082004403FF821B3
:1048720008292825483FF800001FF0101010101FCB
:10488200F0101010101FF01010C8E70010001000F8
:104892001000107CFE442244224422444244244418
:1048A200144408441444227C42448000B4CB0004E3
:1048B20040044004402444244827502460244024D7
:1048C200402440244024422F42F042403E0000C88F
:1048D200CE00081008780BC0104010403040304025
:1048E2005FFE90401040104010401040104017FCF6
:1048F2001000D0D400102010201120112019FC55D6
:104902002052205020902011FC1020102010201046
:104912002013FE1000EFAE00100011FC3D242124F4
:1049220041FCBD24112411FCFC20102011FC10209C
:104932001420182013FE0000B5E700010001000159
:10494200003FF82108210821083FF8210821082109
:10495200083FF8210A0102010200FEB3D80000401C
:10496200204012401258826842C853481E481248DA
:104972002248E25822422202220221FE0000D1B93C
:104982000000003FFE200020802080208020802F19
:10499200FC2080208020902088208840805FFE803C
:1049A20000A3BA00000000000000000000000000A8
:1049B2000000000000003000300000003000300035
:1049C20000000000A3AC0000000000000000000096
:1049D2000000000000000000000000000030003075
:1049E20000100020000000A3A10000001000100031
:1049F2001000100010001000100010001000000045
:0A4A0200000010001000000000008A
:10600300C7E00000000000000000000000000000E6
:1060130003800000018000000198000003FC0000E1
:106023007F0000000100000001F800003F80000035
:1060330001000000010FF8000FFE1807FC00001F0D
:106043000030000003FC00001C1C000010180000BE
:1060530011C800001E080000100C000011CC000045
:106063001F0C0000300C0000300C0000300C00004E
:10607300607C000060380000001800000000000091
:10608300000000B4BA00000000000000000000029D
:106093000000000300000003000000037E0000076F
:1060A300F000001E0000000200000006F800007F60
:1060B300C0000036000000040E00000DFF0001FFC9
:1060C300C00001C820000018100000300C00003090
:1060D3007600007FFB8000D819C0019818F80319D7
:1060E300987E0C1F98001818180000181800001844
:1060F300D800001FF800001838000000100000004E
:0661030010000000000086
:07695B0044019D0000000053
:10722000D2CDD2877F057E001272BAC2CD7F057E95
:07723000001272BAC28722AE
:1072CE00C2CDD2877F057E001272BAD2CD7F057EE7
:0472DE00000272BA7E
:10726500A21992CDD2877F057E001272BAC2877F9E
:06727500057E000272BA62
:106F0A00C2877F057E001272BAD2CD7F057E00123B
:106F1A0072BAD2877F057E001272BA30CD0CC28750
:106F2A007F057E001272BA7F0022C2877F057E002B
:066F3A001272BA7F012271
:056D39009001B3EFF032
:106D3E00E4A3F09001B4E0C3940874809480502FC3
:106D4E00C2877F057E001272BA9001B3E0FF30E772
:106D5E0004D2CD8002C2CDEF25E09001B3F0D287F0
:106D6E007F057E001272BA9001B4E004F080C4C2B6
:046D7E0087026F0A0F
:106CA500E49001B6F0D2CD9001B5F09001B5E0C306
:106CB500940874809480502CA3E025E0F0D2877F5F
:106CC500057E001272BA9001B6E0FFA2CDE433FE54
:106CD500EF4EF0C2877F057E001272BA9001B5E0D3
:096CE50004F080C79001B6E0FF45
:016CEE002283
:10717E009001B7EFF0A3EDF01272207F3C126D3943
:10718E009001B7E0FF126D399001B8E0FF126D3932
:03719E000272CEAC
:1063AE001272207F3C126D397F03126D39127220EA
:1063BE007F3D126D39E490010CF090010CE0C39416
:1063CE0007748094805029126CA590010CE0FE2475
:1063DE000DF582E43401F583EFF0EE64067004D21D
:1063EE00198002C21912726590010CE004F080CA85
:1063FE001272CE7F057E001272BA90010DE0FEA3DE
:10640E00E0FDEDFF900115EEF0A3EFF090010FE02F
:10641E00FEA3E0FDEDFF900117EEF0A3EFF090016B
:10642E0011E0FEA3E0FDEDFFAC06EC123382C004DA
:10643E00C005C006C007900115E0FCA3E0FDEC12FC
:10644E003382900181123AF0D007D006D005D004E5
:10645E00126691E4FBFA793478431231C67BC37A23
:10646E00F5794878401232CFE4FBFA79347843124A
:08647E0030D590019D023AF0B7
:07736800E4FD7F0202717ECB
:10000E0001000100010001000100010001000100DA
:10001E0001000100010001000100010001000100CA
:10002E0001000100010001000100010001000100BA
:10003E0001000100010001000100010001000100AA
:1002BE00010001000100010001000000000001002A
:1002CE000100010001000100010001000100010018
:1002DE000100010001000000010001000100010009
:1002EE0001000100010001000100010001000100F8
:1002FE0001000100010001000100010001000100E8
:10030E0001000100010001000100010001000100D7
:10031E0001000100010001000100010001000100C7
:10032E0001000100010001000100010001000100B7
:10033E0001000100010001000100010001000100A7
:10034E000100010001000100010001000100010097
:10035E000100010001000100210061008100810007
:10036E006100410021002100210021000100010057
:10037E000100010001000100010001000100010067
:10038E000100010001000100010001000100010057
:10039E000100010001000100010001000100010047
:1003AE000100010001000100010001000100010037
:1003BE000100010001000100010001000100010027
:1003CE000100010001000100010001000100010017
:1003DE000100010001000100010001000100010007
:1003EE0001000100010001000100010001000100F7
:1003FE00010041002211042264322432E4298319BF
:10040E0022014101410161014101E200810022000E
:10041E0001000100010001000100010001000100C6
:10042E0001000100010001000100010001000100B6
:10043E0001000100010001000100010001000100A6
:10044E000100010001000100010001000100010096
:10045E000100010001000100010001000100010086
:10046E000100010001000100010001000100010076
:10047E000100010001000100010001000100010066
:10048E000100010001000100010000004100831184
:10049E000643F7E7F8FFF9FFDAFFFCEF060BF47EF1
:1004AE00F36FEE678604C50304020201210001000A
:1004BE000100010001000100010001000100010026
:1004CE000100010001000100010001000100010016
:1004DE000100010001000100010001000100010006
:1004EE0001000100010001000100010001000100F6
:1004FE0001000100010001000100010001000100E6
:10050E0001000100010001000100010001000100D5
:10051E0001000100010001000100010001000100C5
:10052E00010001000100410023190533F8F7FBFF1C
:10053E00FBFFF9FFF8F735B78B3D0714D2872C6F09
:10054E00EA87C94F6A4F2D25A10001000100010065
:10055E000100010001000100010001000100010085
:10056E000100010001000100010001000100010075
:10057E000100010001000100010001000100010065
:10058E000100010001000100010001000100010055
:10059E000100010001000100010001000100010045
:1005AE000100010001000100010001000100010035
:1005BE000100010001000100010001000100010025
:1005CE002100020933AE16CFFDFFFDFFFDFFFDFF3B
:1005DE00129FB29E061CED5D441CE413E30B4824EF
:1005EE0003034D2C41018200620082006100210054
:1005FE0001000100010001000100010001000100E5
:10060E0001000100010001000100010001000100D4
:10061E0001000100010001000100010001000100C4
:10062E0001000100010001000100010001000100B4
:10063E0001000100010001000100010001000100A4
:10064E000100010001000100010001000100010094
:10065E000100010001000100010001006200E31130
:10066E00F8E7FBFFFCFFFEFFFEFFF9F7EB458C5EA4
:10067E00F48746144F67319FAA14B0760503440AD7
:10068E0021020201C401567F6201E2008100410095
:10069E000100010001000100010001000100010044
:1006AE000100010001000100010001000100010034
:1006BE000100010001000100010001000100010024
:1006CE000100010001000100010001000100010014
:1006DE000100010001000100010001000100010004
:1006EE0001000100010001000100010001000100F4
:1006FE0001000000010081006311852A2B55EF8D4A
:10070E00FEFFFAEF94B7DBFF2835F2975257640CD1
:10071E006704070C05034503AF3EA60367132302C8
:10072E00C2026A0446038B1C4102210181000100B2
:10073E0001000100010001000100010001000100A3
:10074E000100010001000100010001000100010093
:10075E000100010001000100010001000100010083
:10076E000100010001000100010001000100010073
:10077E000100010001000100010001000100010063
:10078E000100010001000100010001000100010053
:10079E00C100031AF195F9EF4C65FBFFFAFFED76F8
:1007AE008A5D0A4DC72C480DB16F4D2E470C0815AA
:1007BE006C1469030503CA1C718F66034A0C650C21
:1007CE006C4FCC9F471F2705E301E200410001005B
:1007DE000100010001000100010001000100010003
:1007EE0001000100010001000100010001000100F3
:1007FE0001000100010001000100010001000100E3
:10080E0001000100010001000100010001000100D2
:10081E0001000100010001000100010001000100C2
:10082E00010001000100010001006100E301139FBE
:10083E0096C7FBDFFCF7FBF7F7E78E66D6E7F4B754
:10084E00106FA724B5AF6A15280C0C36A71BA90B81
:10085E00C80AA60A0603ED55CB47F3E7EA5FCB2E8F
:10086E00F09FEC47EC05A602630181000100010038
:10087E000100010001000100010001000100010062
:10088E000100010001000100010001000100010052
:10089E000100010001000100010001000100010042
:1008AE000100010001000100010001000100010032
:1008BE0001000100210022002100000001000100C2
:1008CE00010001002100E100A532F9D7FFFFFFFF73
:1008DE00FDE7FDEF2C65E83C0935E934A93CC83449
:1008EE00ED55906EF68FCC3ED4CF8834241427036A
:1008FE002603470CF1A74A57F0BFCFAFCB878947E6
:10090E00E7276B1729058401620001000100010031
:10091E0001000100010001000100010001000100C1
:10092E0001000100010001000100010001000100B1
:10093E0001000100010001000100010001000100A1
:10094E000100010001000100010001000100210071
:10095E0024112419A2002100010001000100010050
:10096E006100C211FAEFDAE77BD7FFFFFEF793BF04
:10097E008C75F9D7AF768E66F5BF739FA60B2503E0
:10098E002403A402C40A090CA403904E7267E90C56
:10099E00EA6FCD4FA757CFB7F9FFF0CF891FC957D1
:1009AE00CA0F6C1521014100010001000100010078
:1009BE000100010001000100010001000100010021
:1009CE000100010001000100010001000100010011
:1009DE000100010001000100010001000100010001
:1009EE00010001000100010001002100A629FFFF06
:1009FE00C621610021000100000081006201232355
:100A0E00CB57F7D7FFFFFFFFFFFFFCE7FBFFFAFF18
:100A1E00F8F7F6E7461D0E3F480DC7030803E40935
:100A2E00860AC401E401050327038A46F3D7AC679F
:100A3E00CE974A57F1AFF8F7C78FC82F0B0E480461
:100A4E00C60181000100010001000100010001004A
:100A5E000100010001000100010001000100010080
:100A6E000100010001000100010001000100010070
:100A7E000100010001000100010001000100010060
:100A8E0001000100010042006832FFFFFFFF8511E7
:100A9E0082008200E200A201291DEF8FF8D7FFFF2E
:100AAE00FFFFFFFFFFFFFAEFF8F7F4EFF3DFF1CFF1
:100ABE00EEBFEEBFF0C7EF9F862DE802E301840183
:100ACE0028122309E4015066AD57CD87F5E7F9F7F3
:100ADE004B4FF6EFFCFFF3AFC604C904A60242016A
:100AEE0042000100010001000100010001000100AF
:100AFE0001000100010001000100010001000100E0
:100B0E0001000100010001000100010001000100CF
:100B1E00010001000100010001000100010021009F
:100B2E0041006200E619FFFFFFFF6B436722C942D7
:100B3E003CDFDDE775A7D9DFBBE7FFFFFFFFFFFF58
:100B4E00FEEFF4CFF1CFD0D78D5FC413A80BE80B17
:100B5E000604A603AA26AB072A0F46024301A200EB
:100B6E00C20081016403F3B7EFC7EE870C2FF7F7CE
:100B7E00A94FC9272904A5024302A3018200000040
:100B8E00010001000100010001000100010001004F
:100B9E00010001000100010001000100010001003F
:100BAE00010001000100010001000100010001002F
:100BBE00010001000100010001004200F39424092C
:100BCE000612FFF7FFFFFFFFFFFFFFFFFFFFDFFF35
:100BDE00FEFFFEF7FFFFFFFFFFFFFFFFB8C7F1C7E6
:100BEE00F1BFAE6F2213A1014201220102012101C8
:100BFE008201A502C3024703AD0DA200610082006F
:100C0E004201A50ACF77F3E78737EFC7AC0EE904A9
:100C1E00290CC60343020402610001000100010019
:100C2E0001000100010001000100010001000100AE
:100C3E00010001000100010001000100010001009E
:100C4E00010001000100010001000100010001008E
:100C5E000100010001008200DFF7EA4AF69DBEF7AF
:100C6E00FFFFFFFFFFFFFFF75395892BB046DFFF16
:100C7E00FEFFFFFFFEF7DFFFFFF7B8AF861BE209AF
:100C8E00E100410021002100010021004100A100EE
:100C9E00E1000301A20042008200820082000301F3
:100CAE00E2018503E81E6B06D04F0D05290368058A
:100CBE00C602E30042002200010001000100010013
:100CCE00010001000100010001000100010001000E
:100CDE0001000100010001000100010001000100FE
:100CEE0001000100010001000100010001000100EE
:100CFE00010021008621DFFFDFFFFFF7FFFFFFFF6F
:100D0E00FFFF6E5C451A282BDFFFFEFFD8AFCE37F4
:100D1E008E2EB14DFFFFFFFF262281000100000045
:100D2E000100000000000100000001000100210090
:100D3E00210002084200630063006200820041014C
:100D4E00C001220264020602C4012401C300820013
:100D5E0062004200010001000100010001000100DB
:100D6E00010001000100010001000100010001006D
:100D7E00010001000100010001000100010001005D
:100D8E00010001000100010001000100000021002E
:100D9E00E3084C5BBEF7FFFFFFFF8F6CDEEFFFFF3C
:100DAE008B337DE7FFFFB3753586D0344813860A43
:100DBE00A722FFF7651920000000010001000100C5
:100DCE00010001000100010001000100010001000D
:100DDE000100220042004A13410021004100A200FE
:100DEE00E4002609C3006200620082008200430014
:100DFE0001000100010001000100010001000100DD
:100E0E0001000100010001000100010001000100CC
:100E1E0001000100010001000100010001000100BC
:100E2E000100010001000100010000000100C308E3
:100E3E00E6212A3B0D54EC4B4E5CFFFFBEFFFFF745
:100E4E00FFFFFFFFFFFFDFFFFFFF461AC300820019
:100E5E00210001000100010001000100010001005C
:100E6E00010001000100010001000100010001006C
:100E7E0042004200220022000100220082004301B3
:100E8E008300620082000301230162000100010061
:100E9E00010001000100010001000100010001003C
:100EAE00010001000100010001000100010001002C
:100EBE00010001000100010001000100010001001C
:100ECE000100010001000100010021006100061A6D
:100EDE00FFFFBFF7FFFFFFFFFFFFFFFFFFFFFFFF5C
:100EEE00DFFFFFFFFFFFFFF764112100010001008C
:100EFE0001000100010001000100010001000100DC
:100F0E0001000100010001000100010001000100CB
:100F1E006501A30022002100430803010301C30061
:100F2E00E4006401080AA30042002200210001002F
:100F3E00010001000100010001000100010001009B
:100F4E00010001000100010001000100010001008B
:100F5E00010001000100010001000100010001007B
:100F6E0001000100010001004100E621FFFFFFFF2B
:100F7E00FFFFFFFFBEF7FEE711756D4C2B34FFF739
:100F8E00FFFFFFFFC621210001000100010001004B
:100F9E00010001000100010001000100010001003B
:100FAE0001000100010001000100010021006200AA
:100FBE00C40842004100A3004B35E408E400A4003D
:100FCE00A300E300C3008200220001000100010023
:100FDE0001000100010001000100010001000100FB
:100FEE0001000100010001000100000002000200EA
:100FFE0002002200010001000100000000000100BB
:10100E00010001002100A619FFFFDFFFB8AE19AFE6
:10101E00FFF7FFFFFFFFDFFF1175FFFFFFFFFFF77A
:10102E00240921000100010001000100010001005E
:10103E00010001000100010001000100010001009A
:10104E00010001000100010001004200CA1A8300E4
:10105E0042006200C300E400E400A400A300C30049
:10106E00AE4C0301A200420001000100010001008C
:10107E00010001000100010001000100010001005A
:10108E0001000100010021006300630063000912EA
:10109E002200020001000100010001008721010071
:1010AE0001000411DEEFFFFFFFFFFFFFFFFFDFFF79
:1010BE00DEF7FEEFFFFFFFFFFFFF6C53A2080100FC
:1010CE00010001000100010001000100010001000A
:1010DE0001000100010001000100010001000100FA
:1010EE0001000100010063004701C9022301A200B3
:1010FE006200C300060A0812C300B36543018409E7
:10110E00281BE10061000100010001000100010047
:10111E0001000100010001000100010001000100B9
:10112E006100E20025010401E5088400630022004D
:10113E0002000100010023002100010001008200D5
:10114E006832FFFFFFFFFFF7927D738DFFEFFFFF0A
:10115E00FFFFFFFFFFFFC619410001000100010064
:10116E000100010001000100010001000100010069
:10117E000100010001000100010001000100010059
:10118E000100A40090024F05C90482018200830071
:10119E000401450104016501C50265028702450B84
:1011AE0022094000010001000100010001000100C0
:1011BE000100010001000100010041004101F18F19
:1011CE00AC0CE509AB1BC4004601630043002200D2
:1011DE00410086112100010000006200A511FFFFF1
:1011EE00FFFFDFFFFFFFFFFFFFFFFFFFFFFFFFF729
:1011FE004B434409410001000100010001000100C0
:10120E0001000100010001000100010001000100C8
:10121E000100010001000100010001000100A40015
:10122E00EF02AE052D072403E200620003012A132C
:10123E000409A80A2603F397271DED9F4303C10057
:10124E000100010001000100010001000100010088
:10125E0001000100010081000202EC87840BCA0B21
:10126E00C502E400C400A400C30082008001A401F2
:10127E00420001002100A2082612FFF7FFFFFFFF28
:10128E00FFFFFEF7FFF7FFFFFFFF16A6D59D339575
:10129E00640941000100010001000100010001008C
:1012AE000100010001000100010001000100010028
:1012BE00010001000100010001006300A801720598
:1012CE00CD060C1E0301820002010302050144013A
:1012DE00A502871664046E6F0A2E2101010001001B
:1012EE0001000100010001000100010001000100E8
:1012FE000100C100C402ED5F2704D197E60AC401C4
:10130E0065012A0B05090301AC1523016200620079
:10131E002409882AFFFFFFEF1BCFFFFFFFFFFFFF10
:10132E00FFFFFFFFFFFFFFFFFFFFFFFFFBD6E308FF
:10133E000100010001000100010001000100010097
:10134E000100010001000100010001000100010087
:10135E0001000100010022000501ED032B07A80288
:10136E002301A200E400E40083014509E90B8B6729
:10137E00271F280DAC87410101000100010001006B
:10138E000100010001000100010001002100E20046
:10139E006402C70228250C5EAE4D680C8B350B1C03
:1013AE00A6018401A8036301E300E7217DE7FFFFA7
:1013BE00FFFFFFFFFFFFFFFFFFFFFFFFFFFFFFFF2F
:1013CE00FFFFFFFFDFFFDFFFDFFF25190100010039
:1013DE0001000100010001000100010001000100F7
:1013EE0001000100010001000100010001000100E7
:1013FE00010001006200E200C401A301A701030184
:10140E00E30085012402A50105024A4E2A1EEC3F87
:10141E00A81CE10001000100010001000100010013
:10142E000100010001000100010823012403030251
:10143E00450265032503870B8613CA240402EE14A6
:10144E00280368126E23DEFFFFFFFFFFFFFFFFFF83
:10145E00FFFFFFFFFFF70A3BA82A6B43FFFFFFFFCB
:10146E00FFFF0C44261AE3080100010001000100F1
:10147E000100010001000100010001000100010056
:10148E000100010001000100010001000100010046
:10149E0001004100C2004702A90725026501A30110
:1014AE000303450184012302F25F660DA101810051
:1014BE000100010001000100010001000100010016
:1014CE000100010041008B24ED6FE409E5010702E4
:1014DE002402A80C09158A24A3022915A604A50224
:1014EE00E511DFF7FFFFFFFFFFFFFFFFFFFFDEF757
:1014FE006A338409E3006409F7B5FFFFFFFFFFF7C6
:10150E004822C30862000100010001000100010031
:10151E0001000100010001000100010001000100B5
:10152E0001000100010001000100010001000100A5
:10153E00C3008E022D064C0ECA0265018501E5011F
:10154E000301E401880C4102020141000100010087
:10155E000100010001000100010001000100010075
:10156E00620063020302E40985036401E401AF56DD
:10157E002A0CE914C5038E47EC5FA9038401272AC0
:10158E00F6AD98BEFFFFFFFFFFFFDFFFFFFF0A4331
:10159E008511E3004722FFF7FFFFDFFFFFF7A93AB0
:1015AE008509C20042002100010001000100010076
:1015BE000100010001000100010001000100010015
:1015CE0001000100010001000100220025011104AB
:1015DE002E0F4B078A03AE2C6401041123018401E4
:1015EE00E201620182002100010001000100010000
:1015FE000100010001000100010001004108640129
:10160E004C1CC5018409840104026502C82CEF2D0F
:10161E00060CF3C7EFB78C166301C2002612FFF754
:10162E00FFFFFFFFF174FFF7FFFFFFFF1BDF8511C9
:10163E0003096C5BFFFFFFFFFFFFFFFFFFFF483259
:10164E00A511C300620001000100010001000100AC
:10165E000100010001000100010001000100010074
:10166E0001000100010022002501AF05EA078C07E9
:10167E00F0030602470A090B0402C3017067C30197
:10168E008200C721010001000100010001000100DC
:10169E000100010001000100420823012402A409F7
:1016AE00070B04028A34ED3DA70BEA0B680CF0BF62
:1016BE00EC97C40BA2010301CD63FFFFFFFFFFF701
:1016CE00261A461AFFF7FFFFFFFFDBCE2409261A64
:1016DE00FEF7FFFFFFFFFFFFFFFFFFFFFFF7507C4F
:1016EE0085118200210001000100010001000100AE
:1016FE0001000100010001000100010001000100D4
:10170E0001000100A300AB020D054D072B04E502FD
:10171E00D25E4713E602C80B6D25A401820021009C
:10172E0001000100010001000100010001000100A3
:10173E00010001006310C501830164014702C70265
:10174E000603CF4EF6A78A1C0C1DEC6FEA7FCC3732
:10175E00230A6732DFFFFFFFFFF78B3BC509A509A1
:10176E0099BEFFFFFFFFD5A5A722FACE3AC7FFF716
:10177E00FFFFFFFFFFFFFFFFFFFFFFFF9EEF893A17
:10178E00C300210001000100010001000100010061
:10179E000100010001000100010001000000010034
:1017AE00220004012802AE03C802C603C803F06F6C
:1017BE00F9DF0713B46FC401C1004100010001003D
:1017CE000100010001000100010001000100010003
:1017DE0041008301A3018401C60146028903CE564E
:1017EE00F8C74B2DEE66EFB7EB7706172403FFFF16
:1017FE00FFFFDFFFD9BEFFFF7DDF461A0E64FFFF3E
:10180E00FFFFFFF76F6CFFFFFFFFFFF7BEE7FFFF66
:10181E00FFFFFFFFFFFFFFFFFFFFFFFF48326200EA
:10182E0001000100010001000100210042008200C0
:10183E00A200A20882004200210001000100630004
:10184E004A0AD0046602C402C4028613AF6E68133D
:10185E00A5126301A2002100010001000100010098
:10186E000100010001000100010001002200E3005F
:10187E008C14C4010502660A2B0C88042C2629152B
:10188E00850DA75FC83FCB5FD8B6FFFFFFFF5CD7C4
:10189E00FFFFFFFFFFFFAC53BDEFFFFFFFFF538DB9
:1018AE00DFFFDFFFFFF7DFFFDFFF317DDFF7FFFF3A
:1018BE00FFFFFFFFFFFFFFFFFFF765112100010094
:1018CE000100210082000309E619A9329074DACED4
:1018DE00A93A0722230981002100A300A709A70224
:1018EE002502E301440A4F87F4AEC30164010401EB
:1018FE004200010001000100010001000100010091
:10190E00010001000100010042000201C301240296
:10191E0025028302A503ED35EF5687046835CA7F8D
:10192E00EA478F4DFFFFDFFFFEEF527DFFFFFFFF08
:10193E00D59DFFFF7CDFDFFFFFFFD0745BD7FFFF7E
:10194E006D4CFEEFFFFFFFF7082B0E6CFFFFFFFF46
:10195E00FFFFFFFFFFFF2832420022006200030953
:10196E00A93AFFF7DFFFFFFFFFFFFFFFFFFFFFFFBC
:10197E00FFFFA93A85116401100EAA07640326031E
:10198E004402E60A630264010301820021000100A1
:10199E000100010001000100010001000100010031
:1019AE0001000100A2002301AA1D4402850AA71B03
:1019BE00E50B6835F9F78504A60C5ABFB8B7DFFFFB
:1019CE00FEF7139D461A95A5FFFFFFFFFFF7FFFFDA
:1019DE00FFFFFFFFFFFF1BCF6B43FFFFF17CDEF727
:1019EE00DFFFFFFF261A03094409E619A93A3495C9
:1019FE007EE7DFF78200E310C61959C6FFFFFFFF2F
:101A0E00FFFFFFFFFFFFFFFFDFFFFFFFFFFFFFFFF8
:101A1E00BEF7C812700C8F06C602E4096402E30218
:101A2E004813A90B8201651102000100010001009B
:101A3E000100010001000100010001000100010090
:101A4E008100A101CB2BA302D697650B4E7785148F
:101A5E008F56E60BE503EB1CFEE7107D47220301D4
:101A6E00E3082B4BFFFFFFFFDEEFB174FFFFFFFF1D
:101A7E00FFFFFAC60612DFF7FFFFE92ADFFFFFFFBF
:101A8E0065194100210062008200C300C308820074
:101A9E0018BE7EF7FFFFFFFFFFFFFFFFFFFFFFFFF9
:101AAE00FFFFB17CA932472A8B43FFFFFFFFDFF711
:101ABE00921DAD0324026E2CC60AC80CF2D7AE6F6F
:101ACE00B17E22016300010001000100010001004E
:101ADE000100010001000100010001004200A2000E
:101AEE00E201A934319F114FC724FAFF0C56681436
:101AFE00AD3567042C0FED0D23094100620048320D
:101B0E00FFFFFFFFA82A6722DEF7FFFFDFFF0B4371
:101B1E00E308E3080409C308A5196519820021002A
:101B2E00010001000100010001000100A308C62907
:101B3E00DFFFFFFFFFFFFFFFFFFFFFF7682A030135
:101B4E00A200A200261AFFFFFFFFFFFF3047CD0FB6
:101B5E0084012301460AE40BEFBFF0C771A72201EF
:101B6E00410001000100010001000100010001001F
:101B7E0001000100010001000100A100E502440383
:101B8E002825A61CF4874F4EC60C8604AE460704C5
:101B9E00C90E0613040261000100C308349D58BE2D
:101BAE0024090309CE63FFFFDEFFC6214200210098
:101BBE00210021002200420001000100010001006D
:101BCE0001000100010001002200C200C6197DE7DC
:101BDE00FFFFDFFF1BCFE611C200410021006100B5
:101BEE00E619FFFFFFFFFFFF9BC745032201E3003E
:101BFE0066094402CB4CA40A4302E3002100010013
:101C0E0001000100010001000100010001000100BE
:101C1E00010001000100A1004713E50B539F070DC2
:101C2E00F4AF6945681464034804290CE927701F52
:101C3E00E5018200010021006200620021004100E6
:101C4E0024114C5B17B6820821000100010001002F
:101C5E00010001000100010001000100010001006E
:101C6E0001000100210083000301061AA82AC82AD8
:101C7E00C722E5196409A20041006100E619FFFFC1
:101C8E00FFFFDFFF179E22018200E2004D35850126
:101C9E00230143012201E2002100010001000100A5
:101CAE00010001000100010001000100010001001E
:101CBE0020000201E503D2976F7FF7B7D48FEFAF05
:101CCE00E70385030704A6040705A5034602E10002
:101CDE00000001000100010001000100210082004E
:101CEE008208210001000100010001000100010035
:101CFE000100010001000100010001004200A200EC
:101D0E000309C619A832738D5DE7FFFFBEF7DFFF2B
:101D1E00DEFF893A031182000622FFFFFFFFFFF765
:101D2E0006126200410042016302EA1A0301030136
:101D3E007355820001000100010001000100010045
:101D4E000100010001000100010001000100E1009D
:101D5E00461CEC97F3AF690C0C1D860B0704E603CB
:101D6E00736726044404EA370404220121000100AB
:101D7E00010001000100010001000100010001004D
:101D8E00010001000100010001000100010001003D
:101D9E00010001000100A3088519C92ADACEBEFF91
:101DAE00DFFFFFFFFFFFFFFFFFFFFFFFFFFFFFFF55
:101DBE003CDFE208271AFFFFFFFFFFF7640941002F
:101DCE006200260205020402A401EE3D0202820018
:101DDE0001000100010001000100010001000100ED
:101DEE0001000100010001000100C1002703882F3E
:101DFE00AA46860D0504C613505F8E46ED3D870438
:101E0E00C504E84FEC574302A10021000100010078
:101E1E0001000100010001000100010001000100AC
:101E2E00010001000100010001000100010001009C
:101E3E000100C308DFFFFFFFFFFFFFFFFFFFFFFFF4
:101E4E00FFFFFFFFFFFFFFFFFFFFFFFFBEEF0309D7
:101E5E00261AFFFFFFFFFFFF6411620003016502F8
:101E6E00B03DE301280C0F4F6401A20022000100D7
:101E7E00010001000100010001000100010001004C
:101E8E000100010001004100A201CF772525AD67B9
:101E9E00440CD09FF8DFF7E7F5CFC915EE3EB04FF3
:101EAE00693F0B1E410120000100010001000100ED
:101EBE00010001000100010001000100010001000C
:101ECE00010001000100010001000100010082007B
:101EDE00559DFFFFFFFFFFFFFFFFFFFFDFFFFFFF30
:101EEE001BD70A3B672AA511C30881000622FFFFF4
:101EFE00FFFFFFFFC611A3006301E613E602A30175
:101F0E00A3018E2D4401CB2A6200010001000100C5
:101F1E0001000100010001000100010001000100AB
:101F2E0001000100E100C302EF9FF3BFF3B7E61417
:101F3E000C2FEE5FF59FF687E90C0E06A91EEA3F01
:101F4E008302A10000000100010001000100010058
:101F5E00010001000100010001000100010001006B
:101F6E0001000100010001000100210024090A4BBB
:101F7E00FFF7DFFFFFFFFFF74A43A722E511230913
:101F8E00C200620021006100271AFFFFFFFFFFFF62
:101F9E00071AE300A4016602A202E4010402E60AA3
:101FAE000401E408410001000100010001000100EC
:101FBE00010001000100010001000100010001000B
:101FCE004100E401A724C5142F6FE5146B1ED39FA7
:101FDE000B36670CCC450D1ECD5FA70E0A2E610188
:101FEE00410001000100010001000100010001009B
:101FFE0001000100010001000100010001000100CB
:10200E00010001000100010082000622DEEF6B4399
:10201E004A336A3BAC533BCFEE63C832A511C308BB
:10202E0061008200A812FFF7FFFFFFFF8722630106
:10203E00E502AE3D091D8402A602EB2B0301A501AC
:10204E006200010001000100010001000100010019
:10205E000100010001000100010001000000C100AB
:10206E004302AA5EA92D0605CB16C60486046C256E
:10207E004804EC5748058C27E6044002A1000100F5
:10208E00010001000100010001000100010001003A
:10209E00010001000100010001000100010001002A
:1020AE0001000100C200DAC6FFFFCC4B5CDFFFFF70
:1020BE00FFFFFFFFFFFFDFFFFFFF89326511030107
:1020CE00C81AFFFFFFFFFFFF4A23670A65022503B9
:1020DE002914491CD26FC401E609620021000100D7
:1020EE0001000100010001000100010001000100DA
:1020FE00010001000100010001004100A2010405E0
:10210E004C3EEE8765030704C614280DB3872A25B7
:10211E008A1529050404CA0F220941000100010095
:10212E000100010001000100010001000100010099
:10213E000100010001000100010001000100010089
:10214E002309DFFFFFFFFFFFFFFFFFFFFFFFFFFF83
:10215E00FFFFFFFFFFFFFFFFFFFF66121045FFFFB0
:10216E00FFFFFFFF0C348503240469258614850CBC
:10217E004503E301891B410001000100010001003C
:10218E000100010001000100010001000100010039
:10219E000100010001000100020104039077050C0B
:1021AE00040304038736670DD06F4A46E504C8154D
:1021BE0089042503E301C200610001000100010052
:1021CE0001000100010001000100010001000100F9
:1021DE00010001000100010001002100A519FFFF0F
:1021EE00FFFFFFFFDFFFDFFF7CCF7165FFFFFFFF0C
:1021FE00FFFFFFFFFFFF5ABFAA2BFFFFFFFFFFFFEF
:10220E00B7B76B2FEDAFEDAFF2D7F4EF2714C401D4
:10221E00A100010001000100010001000100010008
:10222E000100010001000100010001000100010098
:10223E0001000100A1008402F09FE503C302230206
:10224E002F876F9F4A2E2515EA25AF4FCA2EEE8790
:10225E000403C90B8301810021000100010001006C
:10226E000100010001000100010001000100010058
:10227E000100010001002100A519FFFFFFFF1596C7
:10228E00CB430C3498B6DFFFFFFFFFFFFFFFFFFFCE
:10229E00DCF7F0358923FFFFFFFFFFFFB7BFC8371D
:1022AE00ED7FD2CFFBFFF8F78D4EA2018200010029
:1022BE000100010001000100010001000100010008
:1022CE0001000100010001000100010001000100F8
:1022DE0041006209C5036A4563020402840A060CC2
:1022EE0027258B3D4B46F18F692E8D4E8E5F8403D5
:1022FE00EA2F0402E10021000100010001000100AB
:10230E0001000100010001000100010001000100B7
:10231E00010001002411DFF7FFFFFEF7A92BDDE717
:10232E00FFFFFFFFFFFFFFFFFFFFB9AF49152503BB
:10233E00481BFFF7FFFFFFFFFADFCEA7EDB7F8FF51
:10234E00F7FFD4DF8F664209210001000100010072
:10235E000100010001000100010001000100010067
:10236E000100010001000100010001000100C10097
:10237E00660BCB354203040A840A0B04EB15D7DF38
:10238E00F7E710778815105FF0672D3F4F1FAD37B9
:10239E00C402200181004100010001000100010082
:1023AE000000010001000100010001000100010018
:1023BE00C20017AEFFFFFFFFFFFFFFFFFFFFFFFF94
:1023CE00FFFFFFF7558FEB6F89054F5EEB33FFFF76
:1023DE00FFFFFFFFF7AEF2AF4E57EFB7AC56042438
:1023EE00620A8100010001000100010001000100EC
:1023FE0001000100010001000100010001000100C7
:10240E000100010001000100010041086201030406
:10241E00F1CF43132C4ED18F6C3E6C1DF397681584
:10242E00C5144704450304032603A502A6024C5611
:10243E0020024101A1004100010001000000010045
:10244E0001000100010001000100000061000722EF
:10245E00FFFFFFFFFFFFFFFFFFFFFFFFFFFFFFF786
:10246E00BFFFEC67AA06450C7696FFFFFFFFFFFF46
:10247E00BDE7C724440B4403F057C101C20021003D
:10248E000100010001000100010001000100010036
:10249E000100010001000100010001000100010026
:1024AE00010001000100010021016E76EFB7F087F7
:1024BE00630BF7D7105F8F268E47471D0A1E460CFB
:1024CE006503691C881CC402C603AC374605AD4EB5
:1024DE0021026101A1004100010001000100010083
:1024EE00000001000100210041008411FFFFFFFFE9
:1024FE00FFFFFFFFDFFFFEE7B03F8D37EB37EE8FBD
:10250E00A30C307FFFF7FFFFFFFFFFFF1AC7C70ABD
:10251E00A40162014101A20021000100010001009D
:10252E000100010001000100010001000100010095
:10253E000100010001000100010001000100010085
:10254E0001000100A100A302F3DFC50B4D3EE6031F
:10255E00B29F8835F5CFC414B49FC61C8E5E8B1DFA
:10256E0085048603A502E613A903ED770726EB770C
:10257E00E6120201A200C100C000A100820081008B
:10258E00C200220142018201C612FEF7DFF78D3C26
:10259E00E91BA60BE70DCC4F2A3F070567044C3D00
:1025AE00FFFFFFFFFFFFFFFFB8AE45024401A20091
:1025BE0042000100000001000100010001000100C5
:1025CE0001000100010001000100010001000100F5
:1025DE0001000100010001000100010001000100E5
:1025EE002100020102022F4ED06F051C0514D2AF3E
:1025FE000B1D3167682DAA2DE714F497660C2A146B
:10260E00F166260364036B2D491D28062603050279
:10261E002803470C091DA704620183012A154A1FCE
:10262E00E9034C17E4026B175037A712E40144027A
:10263E00290C2C4624048804E91CDEEFFFFFFFFF63
:10264E00FFFFFFFFCB336401620021000100010098
:10265E000100010001000100010001000100010064
:10266E000100010001000100010001000100010054
:10267E000100010001000100010001000100410004
:10268E00A10062012502872D44144A450503061454
:10269E00CB1D430C2715EE57E5030804670BC81333
:1026AE00AC452504A5034503C60A6C0CC70A490CA4
:1026BE00C3018301C602490C2303A3028D2DB05F13
:1026CE00A302A202620225024A1B67026503C82406
:1026DE0071674E47FCEFFFFFFFFFFFFFFFFFBFF7E6
:1026EE000713430142000100010001000100010037
:1026FE0001000100010001000100010001000100C4
:10270E0001000100010001000100010001000100B3
:10271E000100010001000100010001000100610043
:10272E002101A202F3A72F4F8302A302A4038F4E0F
:10273E0087040C2FE70C0B35F7CFF7C7F6B7A904B4
:10274E00C7039667A603651305034702A401840118
:10275E00E4014502C402A3026302C4022403F27F11
:10276E0006038302FDDFD5772F6FE81C705EFEF740
:10277E00FFFFFFFFFFFFFFFFFFFF2A3CA4096200E0
:10278E002100010001000100010001000100010013
:10279E000100010001000100010001000100010023
:1027AE000100010001000100010001000100010013
:1027BE000100010001000100010001006100620141
:1027CE006F4F6926715EC5022A15F7D70614EB1CEA
:1027DE00070CF5BFF5DF71872D5EF7C74C35280C5A
:1027EE004B2D873D6966260B6402A60B8E3D0603B4
:1027FE000914EB34D29F4403C713AD2ED17FD0679B
:10280E00491CDFF7FDF7DDF7FFFFFFFFFFFFFFFFBF
:10281E00FFFFFFFF8B44850B02012100000001002A
:10282E000100010001000100010001000100010092
:10283E000100010001000100010001000100010082
:10284E000100010001000100010001000100010072
:10285E00010001000100010001008100620163011D
:10286E00A201D14F0503450B8703CA44A70B4E5750
:10287E008E66C60CCA25B18F870CAB3DF6DFF2E72C
:10288E00CF9F661C8513F29F6E4E660327148E9F94
:10289E00261C4825EE5D8E9F052D880DF4AF8C25E8
:1028AE00DFFFFFFFFFFFFFFFFFFFDFFF149E304F35
:1028BE004604C402A2000100000001000100010054
:1028CE0001000100010001000100010001000100F2
:1028DE0001000100010001000100010001000100E2
:1028EE0001000100010001000100010001000100D2
:1028FE00010001000100000041006100A100A301E0
:10290E00D48FA502CF4D325F727EC60B0604725F66
:10291E00CB47E4032E3ECB35AD87F3CFEA564E8F31
:10292E00A524861C0504E814861CF2A70615C50C02
:10293E00F4C7F5D7F19FA50CC60CB16F6A1D2E55C5
:10294E00FDD7DDDF96A62A3DF5C7C937CF4704026E
:10295E0081000100010001000100010001000100E1
:10296E000100010001000100010001000100010051
:10297E000100010001000100010001000100010041
:10298E000100010001000100010001000100010031
:10299E000100010001000100210082004201092D09
:1029AE000B35840A26032A0C7277C714E83DE6031A
:1029BE008803C50B107F3387F3BF6D3ECD26280DE0
:1029CE002604F4A7F1A7B1672B660B46E41407158E
:1029DE00CD7F26150615E94D52876D5EF297AA3DFD
:1029EE00929FF6F7D0BFF197280302012100010054
:1029FE0001000100010001000100010001000100C1
:102A0E0001000100010001000100010001000100B0
:102A1E0001000100010001000100010001000100A0
:102A2E000100010001000100010001000100010090
:102A3E00010001000000210082000201C301A9244F
:102A4E000E6EA513480CF4A78E77F1774C2526034E
:102A5E00A41B4C66EE7FA904ED8FC503A80CD16FA5
:102A6E0065156804903F45044F47620C64044805A1
:102A7E00E50BB08FF3C76614EA55F4E7F0D7AB7FDA
:102A8E00AE5F070C4301410001000100010001008F
:102A9E000100010001000100010001000100010020
:102AAE000100010001000100010001000100010010
:102ABE000100010001000100010001000100010000
:102ACE0001000100010001000100010001000100F0
:102ADE0001000100010041004101AC26F5F7F7CFDE
:102AEE00A71C0503A50364034C2D86039156F3BF63
:102AFE004F4F0D3E2703A503420345042504430310
:102B0E00E6038F36F4B7ED87EC4FE603240B840310
:102B1E004A15A402451BF097A955C50AC3094201DF
:102B2E00410001000100010001000100010001004F
:102B3E00010001000100010001000100010001007F
:102B4E00010001000100010001000100010001006F
:102B5E00010001000100010001000100010001005F
:102B6E00010001000100010001000100010001004F
:102B7E000100010081008201020A821182016502B8
:102B8E00913F906705038502C90BF28F0703C70BB0
:102B9E00114FA502A4030B6F8B2E906F0E470604E8
:102BAE002725420B6203A302CF67A50BA2090102E0
:102BBE008201A2014201C100620021000100010058
:102BCE0001000100010001000100010001000100EF
:102BDE0001000100010001000100010001000100DF
:102BEE0001000100010001000100010001000100CF
:102BFE0001000100010001000100010001000100BF
:102C0E0001000100010001000100010001000100AE
:102C1E0001004100810061006100C20083012302B6
:102C2E00E70AEA2BCF3F103EA302E2020302630241
:102C3E00E502640BC40AC402AF6FF1A7715F6502AF
:102C4E004303230263010201C100A0008100610061
:102C5E00210001000100000001000100010001003F
:102C6E00010001000100010001000100010001004E
:102C7E00010001000100010001000100010001003E
:102C8E00010001000100010001000100010001002E
:102C9E00010001000100010001000100010001001E
:102CAE00010001000100010001000100010001000E
:102CBE000100010001006100C200A301E200C20098
:102CCE00A200020923020402A20145020402A60385
:102CDE008401E3012514690DA3094409AD2D2302D6
:102CEE008000220001080100000001000100010027
:102CFE0001000100010001000100010001000100BE
:102D0E0001000100010001000100010001000100AD
:102D1E00010001000100010001000100010001009D
:102D2E00010001000100010001000100010001008D
:102D3E00010001000100010001000100010001007D
:102D4E00010001000100010001000100010001006D
:102D5E00010001002100210021002100210061005D
:102D6E00A100C3086D1CE2008200A2008100C10018
:102D7E0042016201A20061006100610021000100B8
:102D8E00010001000100010001000100010001002D
:102D9E00010001000100010001000100010001001D
:102DAE00010001000100010001000100010001000D
:102DBE0001000100010001000100010001000100FD
:102DCE0001000100010001000100010001000100ED
:102DDE0001000100010001000100010001000100DD
:102DEE0001000100010001000100010001000100CD
:102DFE00010001000100010001000100010042007C
:102E0E0042002100010001000100210041004100AB
:102E1E00010001000100010001000100010001009C
:102E2E00010001000100010001000100010001008C
:102E3E00010001000100010001000100010001007C
:102E4E00010001000100010001000100010001006C
:09735800D2B2D288D2A8D2AF2231
:10696200C116C111C117C115C113C112C114C11879
:106972004200D601F44200D200004200C4000042AC
:1069820000C600004200C800004200CA00004200E7
:0D699200CC00004200CE00004200D000000A
:030003000269BED1
:1069BE00C0E0C083C082C0D075D01030B336D218BC
:1069CE009000D7E004F070069000D6E004F0C3907B
:1069DE0000D7E094E89000D6E0648094834004E40D
:1069EE00F0A3F09000D6E0FFA3E09000D4CFF0A388
:1069FE00EFF08026C2189000D7E024FFF09000D66A
:106A0E00E034FFF0D3A3E094009000D6E0648094CD
:106A1E008050077403F0A374E8F0D0D0D082D083F6
:036A2E00D0E03283
:03000B0002648606
:0D648600C0E0C0F0C083C082C0D075D00857
:10649300AD8BAF8D9000CEE0FAA3E0FBA3EAF0A3AF
:1064A300EBF0EFFE7C00E42DFFEC3EFE9000CEF01F
:1064B300A3EFF0C39BEE9A4019A3E0FEA3E0FF9085
:1064C30000CFE09FFF9000CEE09EFE7D6412380275
:1064D30080389000D0E0FEA3E0FBE4C39BFBE49E86
:1064E300FA74019400F9E49400F89000CEE0FEA35E
:1064F300E0FFE4FCFDEB2FFFEA3EFEED39FDEC3857
:10650300FCE47B64FAF9F812397A9000D2EEF0A336
:10651300EFF09000C9E004F070069000C8E004F0CA
:0D6523009000C9E030E004D2138002D212D3
:0B653000D0D0D082D083D0F0D0E03279
:1070DC00E5A254F34404F5A2E4F5CF75CED075CDFA
:1070EC00C0D2807F01FE127209C2807F0A7E00121C
:0B70FC007209D2807F787E00027209CA
:0F732700C2A48FCFE5CD30E7FB75CDC0D2A42235
:05000600C28102732716
:05734E00120006E4FF3F
:05735300D28102732746
:05729100E0FEA3E0FF98
:10729600AD07AC06D281ECFF127327AF0502732748
:1070140090015DEEF0A3EFF0A3ECF0A3EDF07F2A76
:1070240012000690015D127291AE02AF03127296C5
:107034007F2B120006A31272919001631272917F4A
:047044002C02000614
:086B5F009001A1EEF0A3EFF09C
:106B67009001637401F0A3743FF07BEF7A00E4FDBA
:106B7700FCFFFE127014E49001A3F0A3F0E4FBFA0B
:106B87009001A11272910BBB00010ABA01F2BB403E
:106B9700EF9001A4E004F070069001A3E004F0C3B5
:0E6BA7009001A4E094F09001A3E0940040CF90
:016BB50022BD
:106E5800900150FEE0FCA3E0FDC390014DE09DFDD4
:066E680090014CE09CFCCF
:106E6E00AB07AA068D828C83C006C007AE83AF82A5
:106E7E00900163EEF0A3EFF0D007D00612701490DD
:0A6E8E0001A5E0FEA3E0FF027296EA
:0E4FF2009000A8EEF0A3EFF0A3ECF0A3EDF01A
:10500000E49000B2F0A3F0A3F0A3F09000A8E0FEBB
:10501000A3E0FFC3EB9FFFEA9E9000B6F0A3EFF082
:105020009000AAE0FAA3E0FBC39000AFE09BFE90E3
:1050300000AEE09A9000B8F0A3CEF09000A8E0FF98
:10504000A3E09000C0CFF0A3EFF0A3EAF0A3EBF051
:105050009000B6E0FEA3E0FFD39400EE648094805D
:10506000400A9000BCE4F0A304F08021EF4E7008E9
:105070009000BCF0A3F0801574FF9000BCF0A3F08A
:10508000C3E49FFFE49E9000B6F0A3EFF09000B859
:10509000E0FEA3E0FFD39400EE64809480400A9089
:1050A00000BEE4F0A304F08021EF4E70089000BE33
:1050B000F0A3F0801574FF9000BEF0A3F0C3E49F4E
:1050C000FFE49E9000B8F0A3EFF09000B8E0FEA3DC
:1050D000E0FF9000B6E0FCA3E0FDD39FEE6480F813
:1050E000EC6480989000BA4007ECF0A3EDF08005E6
:1050F000EEF0A3EFF0E49000B0F0A3F09000BBE07E
:105100002401FF9000BAE03400FED39000B1E09F8C
:105110009000B0E09E40030251DC9000C0E0FEA38E
:10512000E0FFA3E0FCA3E0FD126E6E9000B6E0FE8F
:10513000A3E0FF9000B3E02FF09000B2E03EF090CB
:1051400000B8E0FEA3E0FF9000B5E02FF09000B4BF
:10515000E03EF09000BAE0FEA3E0FF9000B2E0FC79
:10516000A3E0FDD39FEE6480F8EC6480984020EDCE
:105170009FFFEC9E9000B2F0A3EFF09000BCE0FE29
:10518000A3E0FF9000C1E02FF09000C0E03EF0905F
:1051900000BAE0FEA3E0FF9000B4E0FCA3E0FDD382
:1051A0009FEE6480F8EC6480984020ED9FFFEC9EB9
:1051B0009000B4F0A3EFF09000BEE0FEA3E0FF90FB
:1051C00000C3E02FF09000C2E03EF09000B1E00498
:0C51D000F070069000B0E004F00250FC0B
:0151DC0022B0
:1065E700900169EAF0A3EBF0900165EEF0A3EFF0FC
:1065F700A3ECF0A3EDF0C007A3E0FAA3E0FB900142
:1066070067E0FFA3E09000AECFF0A3EFF0D0071252
:106617004FF2900165E0FAA3E0FBFFAE02C007A3CB
:10662700E0FCA3E0FD90016BE0FFA3E09000AECF9C
:10663700F0A3EFF0D007124FF290016BE0FCA3E05C
:10664700FD900169E0FAA3E0FBA3E0FFA3E090005F
:10665700AECFF0A3EFF0900165E0FEA3E0FF124F8D
:10666700F2900169E0FAA3E0FBFFAE02C0079001D8
:1066770067E0FCA3E0FD90016BE0FFA3E09000AEB4
:0A668700CFF0A3EFF0D007024FF2AE
:0E51DD0090014AEEF0A3EFF0A3ECF0A3EDF08A
:1051EB00E4A3F0A3F0EBFF7E00A3EEF0A3EFF0251A
:1051FB00E0FFEE33FEC374039F900153F0E49E90E7
:10520B000152F0900150E0FEA3E0FF90014EE0FC54
:10521B00A3E0FDD39FEE6480F8EC6480984003021A
:10522B0053B490014BE02DFF90014AE03C126E58B5
:10523B00900150E0FEA3E0FF90014BE02FFF9001A7
:10524B004AE03E90014E126E5B900150E0FEA3E0EF
:10525B00FF90014BE02FFF90014AE03EFE90014E84
:10526B00E0FCA3E0FD90014DE02DFD90014CE03CF6
:10527B00FC126E6E90014EE0FEA3E0FF90014BE03E
:10528B002FFF90014AE03EFE900150E0FCA3E0FDB1
:10529B0090014DE02DFD90014CE03CFC126E6E90A8
:1052AB00014EE0FEA3E0FFC390014BE09FFF900196
:1052BB004AE09EFE900150E0FCA3E0FD90014DE022
:1052CB002DFD90014CE03CFC126E6E900150E0FE07
:1052DB00A3E0FFC390014BE09FFF90014AE09EFECD
:1052EB0090014EE0FCA3E0FD90014DE02DFD9001FF
:1052FB004CE03CFC126E6E90014EE0FEA3E0FFC34F
:10530B0090014BE09FFF90014AE09E126E58900176
:10531B0050E0FEA3E0FFC390014BE09FFF90014ADA
:10532B00E09EFE90014E126E5C90014FE004F07017
:10533B000690014EE004F0C3900152E0648094802B
:10534B00502590014EE0FEA3E07802C333CE33CE5E
:10535B00D8F92406FFE43EFE900153E02FF09001B4
:10536B0052E03EF002520E900150E0FEA3E0FFC36C
:10537B0090014FE09FFF90014EE09EFEEF7802C33D
:10538B0033CE33CED8F9240AFFE43EFE900153E02E
:10539B002FF0900152E03EF0900151E024FFF0908D
:0953AB000150E034FFF002520E43
:0153B40022D6
:10683C00900126EEF0A3EFF0A3ECF0A3EDF0A3EAA9
:04684C00F0A3EBF0DA
:10685000C007A3E0FFA3E0900163CFF0A3EFF0D067
:1068600007127014900128E0FFA3E0900130CFF0F0
:10687000A3EFF090012CE0FEA3E0FFD3900131E004
:106880009F900130E09E5034900126E0FEA3E0FB93
:10689000AA06C390012BE09B90012AE09A400D903C
:1068A000012E1272910BBB00010A80E6900131E0CB
:0C68B00004F070BF900130E004F080B7ED
:0168BC0022B9
:105564007FCB1200067F391273537F2C127353E4DE
:10557400FF1273537F341273537F021273537FCF1E
:1055840012734E7FC11273537F301273537FE8122C
:1055940000067F85127353E4FF1273537F781273EE
:1055A400537FEA12734E1273537FED1200067F6429
:1055B4001273537F031273537F121273537F81123A
:1055C40073537FF71200067F201273537FC01200BB
:1055D400067F231273537FC11200067F1012735388
:1055E4007FC51200067F3E1273537F281273537FC8
:1055F400C71200067F861273537F361200067F4857
:105604001273537F3A1200067F551273537FB112FF
:10561400734E7F181273537FB61200067F081273FD
:10562400537F821273537F271273537FF212734E88
:105634007F261200067F011273537FE01200067F5B
:105644000F1273537F311273537F2B1273537F0CDA
:105654001273537F0E1273537F081273537F4E12CB
:1056640073537FF11273537F371273537F0712738F
:10567400537F101273537F031273537F0E127353AD
:105684007F09127353E4FF1273537FE112734E7F49
:105694000E1273537F141273537F031273537F11CB
:1056A4001273537F071273537F311273537FC112E6
:1056B40073537F481273537F081273537F0F12730F
:1056C400537F0C1273537F311273537F361273530B
:1056D4007F0F1273537F111200067F787E001272BF
:0B56E400097F291200067F2C0200063F
:1072F6007F281200067F147E001272097F1002009A
:017306000680
:10727B007F111200067F787E001272097F2912009F
:06728B00067F2C02000644
:0653B500FBE4900137F05B
:1053BB00900132EEF0A3EFF0A3ECF0A3EDF0A3EB32
:0153CB00F0F1
:1053CC00900132E0FEA3E0FF90013AEEF0A3EFF083
:1053DC009001A5E0FDA3E090013CCDF0A3EDF0D34E
:1053EC00EF94E0EE94004003025563900134E0FC2E
:1053FC00A3E0FD9430EC94014003025563A3E02438
:10540C00E0F0900132E0FAA3E0C006C0072407FBED
:10541C00E43AFAA3E0FEA3E0240FFFE43E9001631C
:10542C00F0A3EFF0D007D006127014900137E060B3
:10543C00030254DFF9E9C394107480948040030292
:10544C005554900136E075F010A4FFE97C002FFF55
:10545C00EC35F0FE747F2FF582743B3EF583E493BC
:10546C00900138F0E4A3F0900139E0C39408748003
:10547C009480503E900138E030E00590013C800370
:10548C009001A7E0FFA3E09001A5CFF0A3EFF0906F
:10549C0001A5127291900138E0C313F0900133E032
:1054AC0004F07006900132E004F0900139E004F051
:1054BC0080B590013AE0FFA3E0900132CFF0A3EF6A
:1054CC00F0900135E004F07006900134E004F0092E
:1054DC00025441E4F9E9C3941074809480506990AB
:1054EC000136E075F010A4FFE97C002FFFEC35F0DD
:1054FC00FE747F2FF582743B3EF583E49390013864
:10550C00F0E4A3F0900139E0FFC394087480948018
:10551C005033900138E030E01F900133E02FFF90C2
:10552C000132E03400FEE9FD900135E02DFD9001E3
:10553C0034E03400FC126E6E900138E0C313F0A31B
:10554C00E004F080BF09808D90013CE0FFA3E09067
:07555C0001A5CFF0A3EFF061
:015563002225
:086D820090018CEFF0A3EDF08D
:106D8A00A3123AFC0000000190018DE0FF14F0EF1D
:106D9A006020A3E0F8A3E0F9A3E0FAA3E0FB9001E6
:106DAA008CE0FFE4FCFDFE12397A90018E123AF073
:106DBA0080D690018EE0FCA3E0FDA3E0FEA3E0FFF5
:016DCA0022A6
:0E61F20090013EEEF0A3EFF0A3ECF0A3EDF071
:10620000E4900149F0900142A3A3E0FEA3E0FFE483
:10621000FCFD900142123AF0E4900147F0900146F3
:10622000E0FFA3E0FEC39F40030262D2C3EF9E14CF
:10623000FD7F0A126D82A804A905AA06AB0790018A
:1062400042E0FCA3E0FDA3E0FEA3E0FF123A05E478
:106250007B0AFAF9F8123A05900148EBF0A3E070D6
:106260003B900146E014FFA3E0FEC39F502EA3E045
:106270007024EE75F008A4FF90013FE02FFF90011D
:106280003EE035F0FE900140E0FCA3E0FDE490012B
:1062900037F07B2080309001497401F0900147E095
:1062A00075F008A4FF90013FE02FFF90013EE0351C
:1062B000F0FE900140E0FCA3E0FD900148E02430B6
:1062C000FBE4900137F01253BB900147E004F00269
:0262D000621D4D
:0162D20022A9
:1067BA00900154EEF0A3EFF0A3ECF0A3EDF0A3EAFE
:0467CA00F0A3EBF05D
:1067CE00E490015BF090015AE0F9A3E0FFC3995009
:1067DE005CC3E99F14FD7F0A126D82A804A905AA65
:1067EE0006AB07900158E0FEA3E0FFE4FCFD123A71
:1067FE0005E47B0AFAF9F8123A05AF0390015CEF53
:10680E00F090015BE075F008A4FF900155E02FFFBA
:10681E00900154E035F0FE900156E0FCA3E0FDEB54
:0D682E0024301253B590015BE004F0809817
:01683B00223A
:1059E7009000EAEEF0A3EFF09000EEEBF0A3EAF000
:0B59F700A3E9F09000ECECF0A3EDF051
:105A02009000EAE0FAA3E0FFAE02C006C007240F4E
:105A1200FBE43AFAA3E0FEA3E0240FFFE43E900188
:105A220063F0A3EFF0D007D006127014E49000F7F1
:105A3200F0A3F09000F7E0FEA3E0FFC39440EE94E1
:105A4200004003025B299000EEE0FBA3E0FAA3E032
:105A5200F91237AAFD9045F275F023EF123B2DEEB5
:105A620075F023A42583F583E4936D6003025B182C
:105A72009000011237C3FF9000F7E0FCA3E09045CD
:105A8200F375F023123B2DEC75F023A42583F583E7
:0A5A9200E4936F6003025B18FBFA57
:105A9C009000F7E0FEA3E09045F575F023123B2D46
:105AAC00EE75F023A42583F583E5822BF582E5833F
:105ABC003AF583E493FF9000F9E4F0A3EFF0E4905F
:105ACC0000F5F0A3F09000FAE030E7059000F180CB
:105ADC00039000F31272919000FAE025E0F0900030
:105AEC00F9E033F09000F6E004F070069000F5E079
:105AFC0004F0C39000F6E094089000F5E0940040A8
:015B0C00C4D4
:105B0D000BBB00010AEB64204A70849000F8E0049E
:0C5B1D00F070069000F7E004F0025A352A
:015B29002259
:105C6D0090016DEEF0A3EFF0A3ECF0A3EDF0A3EB3C
:075C7D00F0A3EAF0A3E9F037
:105C8400E4A3F0900171E0FBA3E0FAA3E0F912377A
:105C9400AA7003025DA7C3948074809480506990B5
:105CA400016EE094E090016DE094004012E4F0A3F2
:105CB400F0900170E02410F090016FE03400F0D314
:105CC400900170E0943090016FE09401400BE490F7
:105CD400016DF0A3F0A3F0A3F090016DE0FEA3E04A
:105CE400FFA3E0FCA3E0FD1237AA1253B590016EA6
:105CF400E02408F090016DE03400F0900172E47546
:105D0400F00112389F025C87D390016EE094D0902A
:105D1400016DE094004012E4F0A3F0900170E024DF
:105D240020F090016FE03400F0D3900170E09420F3
:105D340090016FE09401400BE490016DF0A3F0A397
:105D4400F0A3F0900174E075F008A4FF90016EE0F8
:105D54002FFF90016DE035F0FEC00790016FE0FC6D
:105D6400A3E0FDA3E0FBA3E0FAA3E0F99001A5E022
:105D7400FFA3E09000F1CFF0A3EFF09001A7E0FFC4
:105D8400A3E09000F3CFF0A3EFF0D0071259E7900F
:105D94000172E475F00212389F900174E02402F05D
:035DA400025C8717
:015DA70022D9
:105B2A009000FBEEF0A3EFF09000FFEBF0A3EAF099
:0B5B3A00A3E9F09000FDECF0A3EDF0FB
:105B45009000FBE0FAA3E0FFAE02C006C007241FE9
:105B5500FBE43AFAA3E0FEA3E0241FFFE43E900134
:105B650063F0A3EFF0D007D006127014E49001089B
:105B7500F0A3F0900108E0FEA3E0FFC3940FEE94BC
:105B8500004003025C6C9000FFE0FBA3E0FAA3E099
:105B9500F91237AAFD90600375F083EF123B2DEEE5
:105BA50075F083A42583F583E4936D6003025C5B44
:105BB5009000011237C3FF900108E0FCA3E090605C
:105BC5000475F083123B2DEC75F083A42583F583D2
:0A5BD500E4936F6003025C5BFBFACF
:105BDF00900108E0FEA3E090600675F083123B2D64
:105BEF00EE75F083A42583F583E5822BF582E5839B
:105BFF003AF583E493FF90010AE4F0A3EFF0E49009
:105C0F000106F0A3F090010BE030E7059001028050
:105C1F000390010412729190010BE025E0F09001C6
:105C2F000AE033F0900107E004F07006900106E0FF
:105C3F0004F0C3900107E09408900106E09400403F
:015C4F00C490
:105C50000BBB00010AEB64804A7084900109E004E8
:0C5C6000F07006900108E004F0025B7890
:015C6C002215
:1068BD00900175EEF0A3EFF0A3ECF0A3EDF0A3EBD8
:0768CD00F0A3EAF0A3E9F0DB
:1068D400E4A3F0900179E0FBA3E0FAA3E0F9123716
:1068E400AA605690017CE075F010A4FF900176E058
:1068F4002FFF900175E035F0FEC007900177E0FCB2
:10690400A3E0FD9001A5E0FFA3E0900102CFF0A376
:10691400EFF09001A7E0FFA3E0900104CFF0A3EF14
:10692400F0D007125B2A90017AE475F00212389FC6
:0969340090017CE02402F0809A3D
:01693D002237
:1062D300900119EBF0A3EAF0A3E9F0A3ECF0FEA31D
:0362E300EDF0FFDC
:1062E600C006C007A3E0FCA3E0FDA3E0FEA3E0FF19
:1062F60090011CE0FAA3E02FFFEA3ECF24FFFBEF5C
:1063060034FFFA900122E0FEA3E0FF90011EE0F8C0
:10631600A3E02FFFE83ECF24FFCF34FF900163F0C8
:10632600A3EFF0D007D006127014E4900124F0A376
:10633600F0900122E0FCA3E0FD900120E0FEA3E046
:10634600FF123802900124E0FCA3E0FDC39FEC9EFF
:106356005055D281ED25E0FFEC33FE900119E0FBAC
:10636600A3E0FAA3E02FF9EA3EFA9000011237C340
:10637600FF127327900125E025E0FF900124E0330A
:10638600FE900119E0FBA3E0FAA3E0F98F828E8369
:106396001237C3FF127327900125E004F070929024
:0763A6000124E004F0808AED
:0163AD0022CD
:07736F0025642C25640A00CF
:07699F00C19A4201AE0000A5
:106A3100900185EBF0A3EAF0A3E9F0AF05900185A1
:106A4100E0FBA3E0FAA3E0F9EC8FF012392E9001FC
:106A51008AE0FEA3E0FF900185E0FBA3E0FAA3E05A
:106A6100F9900002EE8FF012394D900185E0FBA301
:106A7100E0FAA3E0F91238CBFF900003E5F0F0A3B0
:106A8100EFF09000021238F6FF900005E5F0F0A358
:0B6A9100EFF07BFF7A73796F0241DAAF
:0B734300D2A0C2A55395DF4396202284
:0E6AFE00900192EEF0A3EFF0A3ECF0A3EDF008
:106B0C00E4A3F0A3F0900192E0FAA3E0FBA3E0FE73
:106B1C00A3E0FFAD03AC021238027C017DF4123805
:106B2C0014C3900197E09F900196E09E5022B2A56D
:106B3C00E4F9F87F207EA17D07FC126E141272BA64
:106B4C00900197E004F070BD900196E004F080B5E0
:026B5C00C2A5D0
:016B5E002214
:056109009001B9EDF06A
:10610E0030951E30961B30971830B31530C61230AE
:10611E00B20F30B50C30C20930B40630C70302617D
:10612E00C89001ADE004F0EF2401FFE43EFEE0C3B1
:10613E009FE49E50030261F1E4F0C21A209506A37B
:10614E00F0A304F02220960A9001AEE4F0A37402AC
:10615E00F02220970A9001AEE4F0A37403F02220FF
:10616E00B30A9001AEE4F0A37404F02220C60A90A4
:10617E0001AEE4F0A37405F02220B20A9001AEE461
:10618E00F0A37406F02220B50A9001AEE4F0A374D9
:10619E0007F02220C20A9001AEE4F0A37408F022A8
:1061AE0020B40A9001AEE4F0A37409F02220C72CAB
:1061BE009001AEE4F0A3740AF02230951F30961CC5
:1061CE0030971930B31630C61330B21030B50D30CB
:1061DE00C20A30B40730C704D21A8000E49001AE70
:0361EE00F0A3F02B
:0161F100228B
:106F76004B616C6D616E5F46696C746572206973F6
:106F8600206F6B0A090000000000000000000000EE
:106F96000000000000003F8000000000000000002C
:066FA60000003F80000026
:10723700D291D2907F057E001272BAC2917F057EED
:07724700001272BAC290228E
:1072E200C291D2907F057E001272BAD2917F057E42
:0472F200000272BA6A
:10724E00EF24FF9291D2907F057E001272BAC29007
:07725E007F057E000272BAF9
:106F4000C2907F057E001272BAD2917F057E001238
:106F500072BAD2907F057E001272BA30910CC29044
:106F60007F057E001272BA7F0022C2907F057E00EC
:066F70001272BA7F01223B
:056DCB00900004EFF050
:106DD000E4A3F0900005E0C3940874809480502FE1
:106DE000C2907F057E001272BA900004E0FF30E787
:106DF00004D2918002C291EF25E0900004F0D2907D
:106E00007F057E001272BA900005E004F080C4C2D3
:046E100090026F403D
:106CEF00E4900005F0D291900004F0900004E0C30E
:106CFF00940874809480502CA3E025E0F0D2907F0C
:106D0F00057E001272BA900005E0FFA291E433FEF7
:106D1F00EF4EF0C2907F057E001272BA900004E031
:096D2F0004F080C7900005E0FFAC
:016D38002238
:1071A100900000EFF0A3EDF01272377FD0126DCB9B
:1071B100900000E0FF126DCB900001E0FF126DCB5B
:0371C1000272E275
:05704800900002EFF0D2
:10704D001272377FD0126DCB900002E0FF126DCB24
:10705D001272377FD1126DCB126CEF900003EFF0EF
:0D706D007F0112724E1272E2900003E0FFEC
:01707A0022F3
:1071C400E4FD7F6B1271A17D077F191271A17D0609
:1071D4007F1A1271A17D187F1B1271A17D017F1C82
:0371E4000271A194
:05715800900000EFF0C3
:10715D00127048900001EFF0900000E004FF1270F3
:10716D0048AD07900001E0FE7C00E42DFFEC3EFEF3
:01717D0022EF
:064A0C00900000123AF0D8
:104A1200782C7C007D017BFF7A6F798C7E007F1081
:104A2200123784783C7C007D017BFF7A6F799C7E13
:104A3200007F1012378490009CE0F8A3E0F9A3E015
:104A4200FAA3E0FBC000C001C002C003900008E06E
:104A5200F8A3E0F9A3E0FAA3E0FB900004E0FCA3D2
:104A6200E0FDA3E0FEA3E0FF1230D17B0A7AD77902
:104A720023783C1231C6D003D002D001D0001230CC
:104A8200D590009C123AF0900040E0F8A3E0F9A320
:104A9200E0FAA3E0FB7F6F7E127D837C3A1230D175
:104AA200900044E0F8A3E0F9A3E0FAA3E0FB12309F
:104AB200D190002C123AF0900048E0FCA3E0FDA354
:104AC200E0FEA3E0FF12336C900030123AF0900047
:104AD20048E0FCA3E0FDA3E0FEA3E0FF12336C90EC
:104AE2000034123AF0900038123AFC3B449BA690F4
:104AF200003CE0F8A3E0F9A3E0FAA3E0FBC000C0A9
:104B020001C002C0037F0A7ED77D237C3C90002C2B
:104B1200E0F8A3E0F9A3E0FAA3E0FB1231C6D00368
:104B2200D002D001D0001230D590003C123AF09061
:104B32000040E0F8A3E0F9A3E0FAA3E0FBC000C064
:104B420001C002C0037F0A7ED77D237C3C900030E7
:104B5200E0F8A3E0F9A3E0FAA3E0FB1231C6D00328
:104B6200D002D001D0001230D5900040123AF0901D
:104B72000044E0F8A3E0F9A3E0FAA3E0FBC000C020
:104B820001C002C0037F0A7ED77D237C3C900034A3
:104B9200E0F8A3E0F9A3E0FAA3E0FB1231C6D003E8
:104BA200D002D001D0001230D5900044123AF090D9
:104BB2000048E0F8A3E0F9A3E0FAA3E0FBC000C0DC
:104BC20001C002C0037F0A7ED77D237C3C9000385F
:104BD200E0F8A3E0F9A3E0FAA3E0FB1231C6D003A8
:104BE200D002D001D0001230D5900048123AF09095
:104BF200009CE0F8A3E0F9A3E0FAA3E0FB90000038
:104C0200E0FCA3E0FDA3E0FEA3E0FF1230D19000A0
:104C12000C123AF090003CE0FCA3E0FDA3E0FEA3FE
:104C2200E0FF900010123AF0900044E0FCA3E0FD97
:104C3200A3E0FEA3E0FF900014123AF0E4FFFEFDB1
:104C42007C3F900010E0F8A3E0F9A3E0FAA3E0FBB8
:104C52001230D5900018123AF0900018E0F8A3E054
:104C6200F9A3E0FAA3E0FB900010E0FCA3E0FDA3AF
:104C7200E0FEA3E0FF1232CF90001C123AF0900047
:104C820018E0F8A3E0F9A3E0FAA3E0FB900014E037
:104C9200FCA3E0FDA3E0FEA3E0FF1232CF900020D0
:104CA200123AF0900010E0FCA3E0FDA3E0FEA3E0C6
:104CB200FF900024123AF0900040E0FCA3E0FDA334
:104CC200E0FEA3E0FF900028123AF090009CE0F88A
:104CD200A3E0F9A3E0FAA3E0FBC000C001C002C058
:104CE2000390000CE0FCA3E0FDA3E0FEA3E0FF9034
:104CF200001CE0F8A3E0F9A3E0FAA3E0FB1231C63E
:104D0200D003D002D001D0001230D590009C123ACC
:104D1200F0900008E0F8A3E0F9A3E0FAA3E0FBC0FA
:104D220000C001C002C003A3E0FCA3E0FDA3E0FEBB
:104D3200A3E0FF900020E0F8A3E0F9A3E0FAA3E0EB
:104D4200FB1231C6D003D002D001D0001230D59070
:104D52000008123AF0900008E0F8A3E0F9A3E0FAA4
:104D6200A3E0FB900004E0FCA3E0FDA3E0FEA3E0CF
:0A4D7200FF1230D19000A0023AF0C9
:105DA8007F3B127158AC06AD07EC123382E4FBFA64
:105DB800798F78431232CF900090123AF07F3F12D9
:105DC8007158AC06AD07EC123382E4FBFA798F7890
:105DD800431232CF900094123AF0900094E0FCA362
:105DE800E0FDA3E0FEA3E0FFA804A905AA06FB12B4
:105DF80031C6C004C005C006C007900090E0FCA3EF
:105E0800E0FDA3E0FEA3E0FFA804A905AA06FB1293
:105E180031C6D003D002D001D0001230D512653F70
:105E2800900098123AF07F3D127158AC06AD07EC1D
:105E3800123382E4FBFA798F78431232CF900094C0
:105E4800123AF0900098E0F8A3E0F9A3E0FAA3E092
:105E5800FB900094E0FCA3E0FDA3E0FEA3E0FF12AA
:105E680032CF126E987B337A33796578421231C615
:105E780090008C123AF07F43127158AC06AD07ECD3
:105E88001233829000A0123AF09000A0E0FCA3E048
:105E9800FDA3E0FEA3E0FF12336C7B337A337983F2
:105EA80078411232CF9000A0123AF09000A0E0FCA6
:105EB800A3E0FDA3E0FEA3E0FF900004123AF090F7
:105EC800008CE0FCA3E0FDA3E0FEA3E0FF124A0C77
:095ED8007BFF7A6F79760241DA52
:1069A6004500DD34431010014500D8344310100172
:0769B6004400E601020304A6
:07737600C283C2C3D2CC2286
:1071E700E4FEEEC39408748094805015EF3392C088
:1071F700EF25E0FFD2C3A2C1E4334FFFC2C30E8025
:01720700E1A5
:017208002263
:10730700C2CC1271E7AC07AF051271E7D2CCAF045C
:017317002253
:0C733600C2CC1271E7E4FF1271E7D2CC68
:017342002228
:0E6C5A007B017A0079DD90019C7405F07F2AA1
:0B6C6800900199EBF0A3EAF0A3E9F023
:106C7300C2CC1271E7AD07E4FC90019CE0FFECC3CA
:106C83009F501A900199E0FBA3E475F0011238B507
:106C9300A9F0FA1237AAFF1271E70C80DCD2CCAF4D
:016CA30005EB
:016CA40022CD
:106C0B00C283E4FD7FE11273077B017A0079DD908B
:106C1B00019C7405F07F30126C68126C5A7D017FF9
:106C2B00211273077F221273077D1A7F24127307B9
:106C3B007D287F251273077D077F261273077D043E
:0F6C4B007F311273077D0E7F20127307D28322D1
:106ED3009001B0EBF0A3EAF0A3E9F0C283126C5A7D
:106EE300E4FD7FE11273079001B0E0FBA3E0FAA396
:106EF300E0F990019C7404F07FA0126C687D0E7F12
:076F030020127307D2832264
